:02000000ff00ff
:080002004c6174746963650030
:17000a00694345637562653220323031362e30322e32373831300074
:16002100506172743a2069434534304858384b2d435432353600ff
:1a003700446174653a204a756e203520323031362032313a33323a333000ad
:0200510000ffae
:040053007eaa997e6a
:02005700510056
:0200590001059f
:03005b00920020f0
:03005e00620367d3
:0300610072011019
:0300640082000017
:02006700110086
:02006900010193
:20006b00000000000000000000000000000000000000000000000000000000000000000075
:20008b00000000000000000000000000000000000000000000000000000000000000000055
:2000ab00000000000000000000000000000000000000000000000000000000000000000035
:0d00cb000000000000000000000000000028
:206dd800000200000000000000000000000000000000000000000000000000000000000099
:206df80000000000000000000000000000000000000000000000000000000000000000007b
:206e180000000000000000000000000000000000000000000000000000000000000000005a
:0d6e3800000000000000000000000000004d
:206e450000000000000000000000000000000000000000000000000000000000000000002d
:206e650000000000000000000000000000000000000000000000000000000000000000000d
:206e85000000000000000000000000000000000000000000000000000000000000000000ed
:0d6ea50000000000000000000000000000e0
:206eb2000000000000000000000000000000000000000000000000000000000000000000c0
:206ed2000000000000000000000000000000000000000000000000000000000000000000a0
:206ef200000000000000000000000000000000000000000000000000000000000000000080
:0d6f12000000000000000000000000000072
:206f1f00000000000000000000000000000000000000000000000000000000000000000052
:206f3f00000000000000000000000000000000000000000000000000000000000000000032
:206f5f00000000000000000000000000000000000000000000000000000000000000000012
:0d6f7f000000000000000000000000000005
:206f8c000000000000000000000000000000000000000000000000000000000000000000e5
:206fac000000000000000000000000000000000000000000000000000000000000000000c5
:206fcc000000000000000000000000000000000000000000000000000000000000000000a5
:0d6fec000000000000000000000000000098
:206ff900000200000000000000000000000000000000000000000000000000000000000076
:20701900000000000000000000000000000000000000000000000000000000000000000057
:20703900000000000000000000000000000000000000000000000000000000000000000037
:0d705900000000000000000000000000002a
:2070660000000000000000000000000000000000000000000000000000000000000000000a
:207086000000000000000000000000000000000000000000000000000000000000000000ea
:2070a6000000000000000000000000000000000000000000000000000000000000000000ca
:0d70c60000000000000000000000000000bd
:2070d30000000000000000000000000000000000000000000000000000000000000000009d
:2070f30000000000000000000000000000000000000000000000000000000000000000007d
:2071130000000000000000000000000000000000000000000000000000000000000000005c
:0d713300000000000000000000000000004f
:2071400000000000000000000000000000000000000000000000000000000000000000002f
:2071600000000000000000000000000000000000000000000000000000000000000000000f
:207180000000000000000000000000000000000000000000000000000000000000000000ef
:0d71a00000000000000000000000000000e2
:2071ad000000000000000000000000000000000000000000000000000000000000000000c2
:2071cd000000000000000000000000000000000000000000000000000000000000000000a2
:2071ed00000000000000000000000000000000000000000000000000000000000000000082
:0d720d000000000000000000000000000074
:20721a00000000000000000000000000000000000000000000000000000000000000000054
:20723a00000000000000000000000000000000000000000000000000000000000000000034
:20725a00000000000000000000000000000000000000000000000000000000000000000014
:0d727a000000000000000000000000000007
:207287000000000000000000000000000000000000000000000000000000000000000000e7
:2072a7000000000000000000000000000000000000000000000000000000000000000000c7
:2072c7000000000000000000000000000000000000000000000000000000000000000000a7
:0d72e700000000000000000000000000009a
:2072f4008000000000000000000000000000000000000000000000000000000000000000fa
:20731400000000000000000000000000000000000000000000000000000000000000000059
:20733400000000000000000000000000000000000000000000000000000000000000000039
:0d735400000000000000000000000000002c
:2073610000000000000000000000000000000000000000000000000000000000000000000c
:207381000000000000000000000000000000000000000000000000000000000000000000ec
:2073a1000000000000000000000000000000000000000000000000000000000000000000cc
:0d73c10000000000000000000000000001be
:2073ce0000000000000000000000000000000000000000000000000000000000000000009f
:2073ee0000000000000000000000000000000000000000000000000000000000000000007f
:20740e0000000000000000000000000000000000000000000000000000000000000000005e
:0d742e000000000000000000000000000051
:02743b0000004f
:02743d0011013b
:02743f00010149
:20744100000000000000000000000000000000002001c000000000800000000000020000c8
:207461000000000008000000000000200000000000000000000000000000000000000000e3
:207481000000000000000000000000000000000000000000000000000000000000000000eb
:0d74a10000000000000000000000000000de
:2074ae000000000000000000000000000000000000000000000000000000000000000000be
:2074ce0000000000000000000000000000000000000000000000000000000000000000009e
:2074ee0000000000000000000000000000000000000000000000000000000000000000007e
:0d750e000000000000000000000000000070
:20751b000000000000000000000000000000000010000000000000400000000000010000ff
:20753b000000000004000000000000100340000000000000000000000000000000000000d9
:20755b00000000000000000000000000000000000000000000000000000000000000000010
:0d757b000000000000000000000000000003
:207588000000000000000000000000000000000000000000000000000300000000000000e0
:2075a80000000000000000000000000002000180000000000006000000000000000000003a
:2075c8000000000000000000000000000000000000000000000000000000000000000000a3
:0d75e8000000000000000000000000000096
:2075f5000000000000000000000000000000000020000000000000800000000000020000d4
:20761500000000000800000000000020000000c0000000000000000000000000000000006d
:20763500000000000000000000000000000000000000000000000000000000000000000035
:0d7655000000000000000000000000000028
:207662000000000000000000000000000000000000000000c0000000000003000000000045
:20768200000c0000000000001000000000000040000000000000000000000000000000008c
:2076a2000000000000000000000000000000000000000000000000000000000000000000c8
:0d76c20000000000000000000000000000bb
:2076cf0000000000000000000000000000000000000000000000000000000000000000009b
:2076ef0000000000000000000000000000000000000000000000000000000000000000007b
:20770f0000000000000000000000000000000000000000000000000000000000000000005a
:0d772f00000000000000000000000000004d
:20773c0000000000000000000000000000000000000000000000000000000000000000002d
:20775c0000000000000000000000000000000000000000000000000000000000000000000d
:20777c000000000000000000000000000000000000000000000000000000000000000000ed
:0d779c0000000000000000000000000000e0
:2077a900000000000008000000000000000000000000008000000000000200000000000036
:2077c9000000000000000000000000000000000000000000000000000000000000000000a0
:2077e900000000000000000000000000000000000000000000000000000000000000000080
:0d7809000000000000000000000000000072
:20781600000000000000000000000000000000000000000000000000000000000000000052
:20783600000000000000000000000000000000000000000000000000000000000000000032
:20785600000000000000000000000000000000000000000000000000000000000000000012
:0d7876000000000000000000000000000005
:207883000000000000000400000000000000000000000000c0000000000001000000000020
:2078a3000000000000000000000000000000000000000000000000000000000000000000c5
:2078c3000000000000000000000000000000000000000000000000000000000000000000a5
:0d78e3000000000000000000000000000098
:2078f0000000020000000000000000000000000020000000c0000080000003000000000013
:20791000000000000000000000000000000000000000000000000000000000000000000057
:20793000000000000000000000000000000000000000000000000000000000000000000037
:0d795000000000000000000000000000002a
:20795d00000000000000000000000000000000000001c0000000000005000000000000162e
:20797d000000000000000000000000000000000000000000000000000000000000000000ea
:20799d000000000000000000000000000000000000000000000000000000000000000000ca
:0d79bd0000000000000000000000000000bd
:2079ca000000010000000000000000000000000010000000000000400080000000000000cc
:2079ea0000000000000000000000000000000000000000000000000000000000000000007d
:207a0a0000000000000000000000000000000000000000000000000000000000000000005c
:0d7a2a00000000000000000000000000004f
:207a37000000000034000000000000000000000000000040000000000001000000000000ba
:207a57000400000000000810000000000000400000000000000000000000000000000000b3
:207a77000000000000000000000000000000000000000000000000000000000000000000ef
:0d7a970000000000000000000000000000e2
:207aa400000002000000000000000000000000002000000000000080000000000000000020
:207ac40000080000000070000000000000000000000000000000000000000000000000002a
:207ae400000000000000000000000000000000000000000000000000000000000000000082
:0d7b04000000000000000000000000000074
:207b1100000000000000000000000000000000000000000000000000000000000000000054
:207b3100000000000000000000000000000000000000000000000000000000000000000034
:2086fd00000000000000000000000000000000000000000000000000000000000000280035
:20871d000000000000400000000000000000000000000000000000000000000000000000fc
:20873d0000000000000000000000000000000000000000000000000000000000000000001c
:0d875d00000000000000000000000000000f
:20876a000000000000000000000000000000000000000000000000000000000000000000ef
:20878a000000000000000000000000000000000000000000000000000000000000000000cf
:2087aa000000000000000000000000000000000000000000000000000000000000000000af
:0d87ca0000000000000000000000000000a2
:2087d700000000000000000000000000000000000000000000000000000000000000000082
:2087f700000000000000000000000000000000000000000000000000000000000000000062
:20881700000000000000000000000000000000000000000000000000000000000000000041
:0d8837000000000000000000000000000034
:20884400000000000000000000000000000000000000000000000000000000000000000014
:208864000000000000000000000000000000000000000000000000000000000000000000f4
:208884000000000000000000000000000000000000000000000000000000000000000000d4
:0d88a40000000000000000000000000000c7
:2088b1000000000000000000000000000000000003000000000000000000000000000000a4
:2088d100000000000000000000000000000000000000000000000000000000000000000087
:2088f100000000000000000000000000000000000000000000000000000000000000000067
:0d8911000000000000000000000000000059
:20891e00000000000000000000000000000000000000000000000000000000000000000039
:20893e00000000000000000000000000800000000000000000000000000000000000000099
:20895e000000000000000000000000000000000000000000000000000000000000000000f9
:0d897e0000000000000000000000000000ec
:20898b000000000000000000000000000000000000000000000000000000000000000000cc
:2089ab000000000000000000000000000000000000000000000000000000000000000000ac
:2089cb0000000000000000000000000000000000000000000000000000000000000000008c
:0d89eb00000000000000000000000000007f
:2089f80000000000000000000000000000000000000000000000000000000000000000005f
:208a180000000000000000000000000000000000000000000000000000000000000000003e
:208a380000000000000000000000000000000000000000000000000000000000000000001e
:0d8a58000000000000000000000000000011
:208a65000000000000000000000000000000000010000000000000000000000000000000e1
:208a85000000000000000000000000300000000000000000000000000000000000000000a1
:208aa5000000000000000000000000000000000000000000000000000000000000000000b1
:0d8ac50000000000000000000000000000a4
:208ad200000000000000000000000000000000002000000000000000000000000000000064
:208af2000000000000000000000000080000000000008000000000000000000000000000dc
:208b1200000000000000000000000000000000000000000000000000000000000000000043
:0d8b32000000000000000000000000000036
:208b3f00000000000000000000000000000000000000000000000000000000000000000016
:208b5f000000000000000000000000000000000000000000000000000000000000000000f6
:20909b000000000000000000000000000010000000000000000000000000000000000000a5
:0d90bb0000000000000000000000000000a8
:2090c800000000000000000000000000000000000000000000000000000000000000000088
:2090e800000000000000000000000000000000000000000000000000000000000000000068
:20910800000000000000000000000000000000000000000000000000000000000000000047
:0d912800000000000000000000000000003a
:2091350000000000000000000000000000000000000000000000000000000000000000001a
:209155000000000000000000000000000000000000000000000000000000000000000000fa
:209175000000000000000000000000000000000000000000000000000000000000000000da
:0d91950000000000000000000000000000cd
:2091a2000000000000000000000000000000000000000000000000000000000000000000ad
:2091c20000000000000000000000000000000000000000000000000000000000000000008d
:2091e20000000000000000000000000000000000000000000000000000000000000000006d
:0d920200000000000000000000000000005f
:20920f0000000000000000000000000000000000000000000000000000000000000000003f
:20922f0000000000000000000000000000000000000000000000000000000000000000001f
:20924f000000000000000000000000000000000000000000000000000000000000000000ff
:0d926f0000000000000000000000000000f2
:20927c000000000000000000000000000000000000000000000000000000000000000000d2
:20929c000000000000000000000000000000000000000000000000000000000000000000b2
:2092bc00000000000000000000000000000000000000000000000000000000000000000092
:0d92dc000000000000000000000000000085
:2092e900000000000000000000000000000000000000000000000000000000000000000065
:20930900000000000000000000000000000000000000000000000000000000000000000044
:20932900000000000000000000000000000000000000000000000000000000000000000024
:0d9349000000000000000000000000000017
:209356000000000000000000000000000000000000000000000000000000000000000000f7
:209376000000000000000000000000000000000000000000000000000000000000000000d7
:2093960000000000001800000000000000000000000000000000000000000000000000009f
:0d93b60000000000000000000000000000aa
:2093c30000000000000000000000000000000000000000000000000000000000000000008a
:2093e300000000000000000000000002000000000000000000000000000000000000000068
:20940300000000000028000000000000000000000000000000000000000000000000000021
:0d942300000000000000000000000000003c
:2094300000000000000000000000000000000000000000000000000000000000000000001c
:209450000000000000000000000000000000000000000000000000000000000000000000fc
:209470000000000000000000000000000000000000000000000000000000000000000000dc
:0d94900000000000000000000000000000cf
:20949d000000000000000000000000000000000000000000000000000000000000000000af
:2094bd0000000000000000000000000000000000000000000000000000000000000000008f
:2094dd0000000000003000000000000000000000000000000000000000000000000000003f
:0d94fd000000000000000000000000000062
:20950a00000000000000000000000000000000000000000000000000000000000000000041
:20952a00000000000000000000000000000000000000000000000000000000000000000021
:20954a00000000000000000000000000000000000000000000000000000000000000000001
:0d956a0000000000000000000000000000f4
:209577000000000000000000000000000000000000000000000000000000000000000000d4
:209597000000000000000000000000000000000000000000000000000000000000000000b4
:2095b700000000000020000000000010000000000000000000000000000000000000000064
:0d95d7000000000000000000000000000087
:2095e400000000000000000000000000000000000000000000000000000000000000000067
:20960400000000000000000000000000000000000000000000000000000000000000000046
:20962400000000000000000000000010000000000000000000000000000000000000000016
:0d9644000000000000000000000000000019
:209651000000000000000000000000000000000000000000000000000000000000000000f9
:209671000000000000000000000000000000000000000000000000000000000000000000d9
:209691000000000000000000000000000000000000000000000000000000000000000000b9
:0d96b10000000000000000000000000000ac
:2096be0000000000000000000000000000000000000000000000000000000000000000008c
:2096de0000000000000000000000000000000000000000000000000000000000000000006c
:2096fe00000000000000180000000000000000000000000000000000000000000000000034
:0d971e00000000000000000000000000003e
:20972b0000000000000000000000000000000000000000000000000000000000000000001e
:20974b00000000000000000000000000000000000000000000000000000000000000001ce2
:20976b0001ccf0000000080000000000000000000000000000000000000000000000000019
:0d978b0000000000000000000000000000d1
:209798000000000000000000000000000000000000000000000000000000000000000000b1
:2097b80000000000000000000000000000000000000000000000000000000000000000365b
:2097d800004f580000001800000000000000000000000000000000000000000000000000b2
:0d97f8000000000000000000000000000064
:20980500000000000000000000000000000000000000000000000000000000000000000043
:2098250000000000000000000000000000000000000000000000000000000000000000041f
:2098450000000000000000012bf400000000000000000000000000000000000000000000e3
:0d98650000000000000000000000000000f6
:209872000000000000000000000000000000000000000000000000000000000000000000d6
:209892000000000000000000000000000000000000000000000000000000000000000000b6
:2098b20000000000000000053744000008000000000000000000000000000000000000000e
:0d98d2000000000000000000000000000089
:2098df00000000000000000000000000000000000000000000000000000000000000000069
:2098ff00000000000000000000000000000000000000000000000000000000000000000049
:20991f00000000000000100000000000000000000000000000000000000000000000000018
:0d993f00000000000000000000000000001b
:20994c000000000000000000000000000000000000000000000000000000000000000000fb
:20996c000000000000000000000000000000000000000000000000000000000000000000db
:20998c000000000000000000000000000000000000000000000000000000000000000000bb
:0d99ac0000000000000000000000000000ae
:2099b90000000000000000000000000000000000000000000000000000000000000000008e
:2099d90000000000000000000000000000000000000000000000000000000000000000006e
:2099f900000000000000b80128000400000000000000000000000000000000000000000069
:0d9a19000000000000000000000000000040
:209a2600000000000000000000000000000000000000000000000000000000000000000020
:209a4600000000000000000000000000000000000000000000000000000000000000000000
:209a660000000000000098053420810000000000000000000000000000000000000000006e
:0d9a860000000000000000000000000000d3
:209a93000000000000000000000000000000000000000000000000000000000000000000b3
:209ab300000000000000000000000000000000000000000000000000000000000000020091
:209ad30001cc0800000090000000000000000000000000000000000000000000000000000e
:0d9af3000000000000000000000000000066
:209b0000000000000000000000000000000000000000000000000000000000000000000045
:209b2000000000000000000000000000000000000000000000000000000000000000000025
:209b4000004f00000000d000000000000000000000000000000000000000000000000000e6
:0d9b600000000000000000000000000000f8
:209b6d000000000000000000000000000000000000000000000000000000000000000000d8
:209b8d000000000000000000000000000000000000000000000000000000000000000000b8
:209bad00000000002000900103682600000000000000000000000000000000000000000056
:0d9bcd00000000000000000000000000008b
:209bda0000000000000000000000000000000000000000000000000000000000000000006b
:209bfa0000000000000000000000000000000000000000000000000000000000000000004b
:209c1a000000000008008007e39929000000000000000000000000000000000000000000f6
:0d9c3a00000000000000000000000000001d
:209c47000000000000000000000000000000000000000000000000000000000000000000fd
:209c67000000000000000000000000000000000000000200000000000000000000000002d9
:209c87000000000000000007ab6800000000000000000000000000000000000000000000a3
:0d9ca70000000000000000000000000000b0
:209cb400000000000000000000000000000000000000000000000000000000000000000090
:209cd40000000000000000000000000000000000000000000000000000000000000000066a
:209cf40000000000000018e12e940000000000000000000000000000000000000000000095
:0d9d14000000000000000000000000000042
:209d21000000000000000000000000000000000000000000000001000000000000003000f1
:209d41000000000000000000000000000308043c00000000000000000000000000000000b7
:209d61004050f50000003007c214000000200000a000000000000000000000000000000090
:0d9d810000000000000000000000000000d5
:209d8e000000000000000000000000000000000000000000000001000000000000000000b4
:209dae000000000000000000000000000801033c1400000000000000010000000000000e2a
:209dce0022eaa0000000f80b6100080000600fe0a00000000000000000000000000000006e
:0d9dee000000000000000000000000000068
:209dfb00000000000000000000000000000000000000000000000000000000000000000048
:209e1b000000000000000000000000000000043c080000000000000000081ac000000000fd
:209e3b002270080000000001c000000000200000000000000000000000000000000000008c
:0d9e5b0000000000000000000000000000fa
:209e68000000000000000000000000000000000000000000000000000000000000000000da
:209e88000000000000000000000000000000023c10000000000000000001f3020000001660
:209ea80064ea0002000019ad202800000060000000000000000000000000000000000000dc
:0d9ec800000000000000000000000000008d
:209ed50000000000000000000000000000000000000000000000000000000000000000006d
:209ef5000000000000000000000000000000043c00100000000000000000000000000004f9
:209f150003c8d8000000080b00000000026245c0a00000000000000000000000000000006d
:0d9f3500000000000000000000000000001f
:209f42000000000000000000000000000000000000000000000000000000000000000000ff
:209f6200000000000000000000000000000006bc10000000000000000000000000000024e9
:209f82006019e40000001987e808080002665cc02000000000000000000000000000000026
:0d9fa20000000000000000000000000000b2
:209faf00000000000000000000000000000000000000000000000000000000000000000092
:209fcf000000000000000000000000000008003c000000000000000000185e3fc2000000b7
:209fef0001f05a09000009890014000000266400a00000000000000000000000000000002e
:0da00f000000000000000000000000000044
:20a01c00000000000000000000000000000000000000000000000000000000000000000024
:20a03c000000000000000000000000000181033c1040000000000000018fb2fb5000000066
:20a05c002adc5060000019903028000001464ca000000000000000000000000000000000fa
:0da07c0000000000000000000000000000d7
:20a089000000000000000000000000000000000000000000000000000000000000000000b7
:20a0a9000000000000000000000000000100003c00400000000000000080b42802000000bc
:20a0c900024f0000008058036800000000000da00000000000000000000000000000000036
:0da0e900000000000000000000000000006a
:20a0f60000000000000000000000000000000000000000000000000000000000000000004a
:20a11600000000000000000000000000099806bc100000000000000001807a8290000006a3
:20a1360000ea08000100b805e020000000003dc1000000000000000000000000000000005b
:0da1560000000000000000000000000000fc
:20a163000000000000000000000000000000000000000000000000000000000000000000dc
:20a183000000000000000000000001000000003c0040000000000000070c577ec200002471
:20a1a300795e0818000098a9400000000140000000000000000000000000000000000000e3
:0da1c300000000000000000000000000008f
:20a1d00000000000000000000000000000000000000000000000000000000000000000006f
:20a1f000000000000000000000000100000006bc10000000000000000019d33f50000034cd
:20a21000620d04400000d185b028000000000000000000000000000000000000000000004d
:0da230000000000000000000000000000021
:20a23d00000000000000000000000000000000000000000000000000000000000000000001
:20a25d000000000000c0000000000200000070168400000000000200010d3b7cc208002460
:20a27d002c70f100200050a500842400000000000000000000000000000000000000000077
:0da29d0000000000000000000000000000b4
:20a2aa00000000000000000000000000000000000000000000000000000000000000000094
:20a2ca0000000000000000000000008000008029500000000000008008011ebfd00200348f
:20a2ea0003d8f0020800000539c50800000000000000000000000000000000000000000074
:0da30a000000000000000000000000000046
:20a31700000000000000000000000000000000000000000000000000000000000000000026
:20a33700000000000000000000000002000a043c00000000000000000000000000000000ba
:20a357002dcf0100000000af6d0000001543ef800000000000000000000000000000000006
:0da3770000000000000000000000000000d9
:20a384000000000000000000000000000000000000000000000000000000000000000000b9
:20a3a400000000000000000000000000001807bc102000000000000000000000000000008e
:20a3c400295d0500000000b3f380000009602ec04000000000000000000000000000000031
:0da3e400000000000000000000000000006c
:20a3f10000000000000000000000000000000000000000000000000000000000000000004c
:20a411000000000000000000000000000b00000000000000000000000000b68500040000e1
:20a431002d7b00000000010ff01080000026160ff000000000000000000000000000000098
:0da4510000000000000000000000000000fe
:20a45e000000000000000000000000000000000000000000000000000000000000000000de
:20a47e000000000000000000000000000800000000000000000000000580824a100c001c2d
:20a49e00035c080000000083b80000000146dcefa200000000000000000000000000000048
:0da4be000000000000000000000000000091
:20a4cb00000000000000000000000000000000000000000000000000000000000000000071
:20a4eb000000000000000000000000000f00000000000000000000000008b0140010000066
:20a50b002a6004100000508bbc20000000203cf5200000000000000000000000000000006a
:0da52b000000000000000000000000000023
:20a53800000000000000000000000000000000000000000000000000000000000000000003
:20a558000000000000000000000000000000000000000000000000000381db0290000016dc
:20a578007cec0002000081996441240001438cba500000000000000000000000000000009c
:0da5980000000000000000000000000000b6
:20a5a500000000000000000000000000000000000000000000000000000000000000000096
:20a5c5000000000000000000000000000000d4000000000000000000000812bcc000800c80
:20a5e5002a5f40304000d08002a8000000403d0c700000000000000000000000000000002a
:0da605000000000000000000000000000048
:20a61200000000000000000000000000000000000000000000000000000000000000000028
:20a63200000000000000000000000000000e129400000000000000000019b7ffd00040264f
:20a6520065ef00000000001322a8200002003ecc202000000000000000000000000000004b
:0da6720000000000000000000000000000db
:20a67f000000000000000000000000000000000000000000000000000000000000000000bb
:20a69f00000000000000000000000002000004140000000000000000010810000000001c4c
:20a6bf0000000000000030b0365800000023bc0af000000000000000000000000000000034
:0da6df00000000000000000000000000006e
:20a6ec0000000000000000000000000000000000000000000000000000000000000000004e
:20a70c0000000000000000000000000000007f14080000000000000009819683d000000619
:20a72c000000000000009805a25a200001464ca0f000000000000000000000000000000031
:0da74c000000000000000000000000000000
:20a759000000000000000000000000000000000000000000000000000000000000000000e0
:20a77900000000000000000000000000031b000000000000000000000908b3c100000036e7
:20a799003f50f201000090002a5800000002bd0a50000000000000000000000000000000f3
:0da7b9000000000000000000000000000093
:20a7c600000000000000000000000000000000000000000000000000000000000000000073
:20a7e600000000000000000000000000000f00000000000000000000000196000800001c89
:20a806000378f54200007003a65a400000606ec650200000000000000000000000000000c9
:0da826000000000000000000000000000025
:20a83300000000000000000000000000000000000000000000000000000000000000000005
:20a85300000000000000000000000000001c501400000000000000000000b0140000014060
:20a873002f50fa00000000002e580000004005000000000000000000000000000000000081
:0da8930000000000000000000000000000b8
:20a8a000000000000000000000000000000000000000000000000000000000000000000098
:20a8c000000000000000000000000000079e1390088020000000000000005a02900000009c
:20a8e00060eea000000001a5a25a420003602680202000000000000000000000000000003d
:0da90000000000000000000000000000004a
:20a90d0000000000000000000000000000000000000000000000000000000000000000002a
:20a92d000000000000000000000000000d00d4000000000000000200010002fc0008000020
:20a94d002ccc5890200000002258008001400100a00000000000000000000000000000000e
:0da96d0000000000000000000000000000dd
:20a97a000000000000000000000000000000000000000000000000000000000000000000bd
:20a99a000000000000000000000000000800169000800000000000800980727c2002000056
:20a9ba0000cf404008005805a25a402003601480a0000000000000000000000000000000d6
:0da9da000000000000000000000000000070
:20a9e700000000000000000000000000000000000000000000000000000000000000000050
:20aa0700000000000000000000000000030b16410000000000000000050a03bc01000000fb
:20aa270028000000000000003430080000029705501000000000000000000000000000007d
:0daa47000000000000000000000000000002
:20aa54000000000000000000000000000000000000000000000000000000000000000000e2
:20aa74000000000000000000000000000101de80000000000000000005001a3c20000000e7
:20aa940028000000000058a03c3200000006eda5a4000000000000000000000000000000d8
:0daab4000000000000000000000000000095
:20aac100000000000000000000000000000000000000000000000000000000000000000075
:20aae100000000000000000000000003800097c90000000000000000070e0afc0000a01e99
:20ab010001fe00000000090080280000000000000000000000000000000000000000000084
:0dab21000000000000000000000000000027
:20ab2e00000000000000000000000000000000000000000000000000000000000000000007
:20ab4e000000000000000000000000000018d692000000000000000000003a7c200040143d
:20ab6e00015d0800000050c138280000c00000000000000000000000000000000000000030
:0dab8e0000000000000000000000000000ba
:20ab9b0000000000000000000000000000000000000000000000000000000000000000009a
:20abbb00000000000000000000000000000eb000000000000000000001000a7c0010002cf9
:20abdb00225d140000000883740000000014000000000000000000000000000000000000b4
:0dabfb00000000000000000000000000004d
:20ac080000000000000000000000000000000000000000000000000000000000000000002c
:20ac280000000000000000000000000000019010808000000000000008007a7c2000062027
:20ac48006e18284000005011704000000007000000000000000000000000000000000000e6
:0dac680000000000000000000000000000df
:20ac75000000000000000000000000000000000000000000000000000000000000000000bf
:20ac9500000000000000000000000000090897000000000000000000000a02fc0040a0000f
:20acb500295075000000018000080000000341006000000000000000000000000000000064
:0dacd5000000000000000000000000000072
:20ace200000000000000000000000000000000000000000000000000000000000000000052
:20ad020000000000000000000000000000001a8200000000000000000001327c2000401472
:20ad2200017c7f03003019d1e8080800000057c064a00000000000000000000000000000e5
:0dad42000000000000000000000000000004
:20ad4f000000000000000000000000000000000000000000000000000000000000000000e4
:20ad6f0000000000000000000000000007003a0100000000000000000b0e027c00000000eb
:20ad8f0038000a00000050efe810000000038100a000000000000000000000000000000007
:0dadaf000000000000000000000000000097
:20adbc00000000000000000000000000000000000000000000000000000000000000000077
:20addc0000000000000000000000000403809e80004000000000000408007a7c20401014ec
:20adfc0004ec0a000040000da000000100604c80a080000000000000000000000000000003
:0dae1c000000000000000000000000000029
:20ae2900000000000000000000000000000000000000000000000000000000000000000009
:20ae49000000000000000000000000000f100000000000000000000000190afc00400082e9
:20ae690000100a00028008bb81400000000025005000000000000000000000000000000034
:0dae890000000000000000000000000000bc
:20ae960000000000000000000000000000000000000000000000000000000000000000009c
:20aeb600000000000000000000000000001a00000000000000000000001f327c2000015420
:20aed60001f80a00013851ab30008000006001c0a4000000000000000000000000000000af
:0daef600000000000000000000000000004f
:20af030000000000000000000000000000000000000000000000000000000000000000002e
:20af2300000000000000000000000000001e0000000000000000000000000a7c0000000466
:20af430042c0811040000803740400c00000000000000000000000000000000000000000d8
:0daf630000000000000000000000000000e1
:20af70000000000000000000000000000000000000000000000000000000000000000000c1
:20af9000000000000000000000000000030e0000000000000000000000001a7c20000020ba
:20afb0002800424200005000700800c000000000000000000000000000000000000000004d
:0dafd0000000000000000000000000000074
:20afdd00000000000000000000000000000000000000000000000000000000000000000054
:20affd000000000000000000000002038f98fc1684000000000002000d1902fc0008000044
:20b01d0020ef52000000d00f43080180000025c060000000000000000000000000000000c2
:0db03d000000000000000000000000000006
:20b04a000000000000000000000000000000000000000000000000000000000000000000e6
:20b06a000000000000000000000000800d0f7a159880000000000080000b1a7c2002000040
:20b08a006fda02000000018073040820000001c094000000000000000000000000000000e6
:0db0aa000000000000000000000000000099
:20b0b700000000000000000000000000000000000000000000000000000000000000000079
:20b0d700000000000000000000000000039b9b3080000000000000000000d000008000021e
:20b0f70000100a00000009a7af440000000015d00010000000000000000000000000000087
:0db11700000000000000000000000000002b
:20b1240000000000000000000000000000000000000000000000000000000000000000000b
:20b144000000000000000000000000280f1ed62000000000000000000000f016b0000014d6
:20b16400004e0a00000070b9f680000000062c810000000000000000000000000000000021
:0db1840000000000000000000000000000be
:20b1910000000000000000000000000000000000000000000000000000000000000000009e
:20b1b10000000000000000000000000000000000000000000000000000000000000000007e
:20b1d10000000000000000000000000000000000000000000000000000000000000000005e
:0db1f1000000000000000000000000000051
:20b1fe00000000000000000000000000000000000000000000000000000000000000000031
:20b21e00000000000000000000000000000000000000000000000000000000000000000010
:20b23e000000000000000000000000000000000000000000000000000000000000000000f0
:0db25e0000000000000000000000000000e3
:20b26b000000000000000000000000000000000000000000000000000000000000000000c3
:20b28b000000000000000000000000000000000000000000000000000000000000000000a3
:20b2ab000000ff204000000000000000000000000000000000000000000000000000000024
:0db2cb000000000000000000000000000076
:20b2d800000000000000000000000000000000000000000000000000000000000000000056
:20b2f800000000000000000000000000000000000000000000000000000000000000000036
:20b318000000ff2000000000000000000000000000000000000000000000000000000000f6
:0db338000000000000000000000000000008
:20b345000000000000000000000000000000000000000000000000000000000000000000e8
:20b365000000000000000000000000000000000000000000000000000000000000000000c8
:20b385000000000000000000000000000000000000000000000000000000000000000000a8
:0db3a500000000000000000000000000009b
:20b3b20000000000000000000000000000000000000000000000000000000000000000007b
:20b3d20000000000000000000000000000000000000000000000000000000000000000005b
:20b3f20000000000000000000000000000000000000000000000000000000000000000003b
:0db41200000000000000000000000000002d
:20b41f0000000000000000000000000000000000000000000000000000000000000000000d
:20b43f000000000000000000000000000000000000000000000000000000000000000000ed
:20b45f000000000000000000000000000000000000000000000000000000000000000000cd
:0db47f0000000000000000000000000000c0
:20b48c000000000000000000000000000000000000000000000000000000000000000000a0
:20b4ac00000000000000000000000000000000000000000000000000000000000000000080
:20b4cc00000000000000000000000000000000000000000000000000000000000000000060
:0db4ec000000000000000000000000000053
:20b4f900000000000000000000000000000000000000000000000000000000000000000033
:20b51900000000000000000000000000000000000000000000000000000000000000000012
:20b53900000000000000000000000000800000000000000000000000000000000000000072
:0db5590000000000000000000000000000e5
:20b566000000000000000000000000000000000000000000000000000000000000000000c5
:20b586000000000000000000000000000000000000000000000000000000000000000000a5
:20b5a600000000000000000000000000000000000000000000000000000000000000000085
:0db5c6000000000000000000000000000078
:20b5d300000000000000000000000000000000000000000000000000000000000000000058
:20b5f300000000000000000000000000000000000000000000000000000000000000000038
:20b61300000000000000000000000000000000000000000000000000000000000000000017
:0db63300000000000000000000000000000a
:20b640000000000000000000000000000000000000000000000000000000000000000000ea
:20b660000000000000000000000000000000000000000000000000000000000000000000ca
:20b680000000000000000000000000000000000000000000000000000000000000000000aa
:0db6a000000000000000000000000000009d
:20b6ad0000000000000000000000000000000000000000000000000000000000000000007d
:20b6cd0000000000000000000000000000000000000000000000000300000000000000005a
:20b6ed0000000000000000000000000000000000000000000000000000000000000000003d
:0db70d00000000000000000000000000002f
:20b71a0000000000000000000000000000000000000000000000000000000000000000000f
:20b73a000000000000000000000000000000000000000000000000000000000000000000ef
:02e81100000005
:02e813001102f0
:02e815000101ff
:20e817000000000000000000000000000000000000000000000000000000000000000000e1
:20e837000000000000000000000000000000000000000000000000000000000000000000c1
:20e857000000000000000000000000000000000000000000000000000000000000000000a1
:0de877000000000000000000000000000094
:020000040001f9
:025be7000000bc
:025be9001103a6
:025beb000101b6
:205bed00000000000000000000000000000000000000000000000000000000000000000098
:205c0d00000000000000000000000000000000000000000000000000000000000000000077
:205c2d00000000000000000000000000000000000000000000000000000000000000000057
:0d5c4d00000000000000000000000000004a
:205c5a0000000000000000000000000000000000000000000000000000000000000000002a
:205c7a0000000000000000000000000000000000000000000000000000000000000000000a
:205c9a000000000000000000000000000000000000000000000000000000000000000000ea
:0d5cba0000000000000000000000000000dd
:205cc7000000000000000000000000000000000000000000000000000000000000000000bd
:205ce70000000000000000000000000000000000000000000000000000000000000000009d
:205d070000000000000000000000000000000000000000000000000000000000000000007c
:0d5d2700000000000000000000000000006f
:205d340000000000000000000000000000000000000000000000000000000000000000004f
:205d540000000000000000000000000000000000000000000000000000000000000000002f
:205d740000000000000000000000000000000000000000000000000000000000000000000f
:0d5d94000000000000000000000000000002
:205da1000000000000000000000000000000000000000000000000000000000000000000e2
:205dc1000000000000000000000000000000000000000000000000000000000000000000c2
:205de1000000000000000000000000000000000000000000000000000000000000000000a2
:0d5e01000000000000000000000000000094
:205e0e00000000000000000000000000000000000000000000000000000000000000000074
:205e2e00000000000000000000000000000000000000000000000000000000000000000054
:205e4e00000000000000000000000000000000000000000000000000000000000000000034
:0d5e6e000000000000000000000000000027
:205e7b00000000000000000000000000000000000000000000000000000000000000000007
:205e9b00000000000000000000000000000000000000000000000000000080000000000067
:205ebb000000000000000000000000000000000000000000000000000000000000000000c7
:0d5edb0000000000000000000000000000ba
:205ee80000000000000000000000000000000000000000000000000000000000000000009a
:205f0800000000000000000000000000000000000000000000000000000000000000000079
:205f2800000000000000000000000000000000000000000000000000000000000000000059
:0d5f4800000000000000000000000000004c
:205f550000000000000000000000000000000000000000000000000000000000000000002c
:205f75000000000000000000000000000000000000000000000000000000400000000000cc
:205f95000000000000000000000000000000000000000000000000000000000000000000ec
:0d5fb50000000000000000000000000000df
:205fc2000000000000000000000000000000000000000000000000000000000000000000bf
:205fe20000000000000000000000000000000000000000000000000000000000000000009f
:2060020000000000000000000000000000000000000000000000000000000000000000007e
:0d6022000000000000000000000000000071
:20602f00000000000000000000000000000000000000000000000000000000000000000051
:20604f0000000000000000000000000000000000000000000000000000000000020000002f
:20606f00000000000000000000000000000000000000000000000000000000000000000011
:0d608f000000000000000000000000000004
:20609c000000000000000000000000000000000000000000000000000000000000000000e4
:2060bc000000000000000000000000000000000000000000000000000000000000000000c4
:2060dc000000000000000000000000000000000000000000000000000000000000000000a4
:0d60fc000000000000000000000000000097
:20610900000000000000000000000000000000000000000000000000000000000000000076
:20612900000000000000000000000000000000000000000000000000000000000200000054
:20614900000000000000000000000000000000000000000000000000000000000000000036
:0d6169000000000000000000000000000029
:20617600000000000000000000000000000000000000000000000000000000000000000009
:206196000000000000000000000000000000000000000000000000000000000002000000e7
:2061b6000000000000000000000000000000000000000000000000000000000000000000c9
:0d61d60000000000000000000000000000bc
:2061e30000000000000000000000000000000000000000000000000000000000000000009c
:2062030000000000000000000000000000000000000000000000000000000000000000007b
:207cd60000000000000000000000000000000000000000000000000000000000008000000e
:207cf60000000000000000000000000000000000000000000000000000000000000000006e
:0d7d16000000000000000000000000000060
:207d2300000000000000000000000000000000000000000000000000000000000000000040
:207d4300000000000000000000000000000000000000000000000000000000000000000020
:209816000000000000000000000000000000000000000000000000000000000000800000b2
:20983600000000000000000000000000000000000000000000000000000000000000000012
:0d9856000000000000000000000000000005
:209863000000000000000000000000000000000000000000000000000000000000000000e5
:209883000000000000000000000000000000000000000000000000000000000000000000c5
:02cfbd00000072
:03cfbf0062007f8e
:03cfc2007200807a
:02cfc500110059
:03cfc700820000e5
:02cfca00010361
:10cfcc000000000000000000000000000000000055
:10cfdc000000000000000000000000000000000045
:10cfec000000000000000000000000000000000035
:10cffc000000000000000000000000000000000025
:02d7cc0000005b
:03d7ce0082008056
:02d7d100010352
:10d7d3000000000000000000000000000000000046
:10d7e3000000000000000000000000000000000036
:10d7f3000000000000000000000000000000000026
:10d803000000000000000000000000000000000015
:02dfd30000004c
:02dfd500110138
:03dfd700820000c5
:02dfda00010341
:10dfdc000000000000000000000000000000000035
:10dfec000000000000000000000000000000000025
:10dffc000000000000000000000000000000000015
:10e00c000000000000000000000000000000000004
:02e7dc0000003b
:03e7de0082008036
:02e7e100010332
:10e7e3000000000000000000000000000000000026
:10e7f3000000000000000000000000000000000016
:10e803000000000000000000000000000000000005
:10e8130000000000000000000000000000000000f5
:02efe30000002c
:02efe500110217
:03efe700820000a5
:02efea00010321
:10efec000000000000000000000000000000000015
:10effc000000000000000000000000000000000005
:10f00c0000000000000000000000000000000000f4
:10f01c0000000000000000000000000000000000e4
:02f7ec0000001b
:03f7ee0082008016
:02f7f100010312
:10f7f3000000000000000000000000000000000006
:10f8030000000000000000000000000000000000f5
:10f8130000000000000000000000000000000000e5
:10f8230000000000000000000000000000000000d5
:02fff30000000c
:02fff5001103f6
:03fff70082000085
:02fffa00010301
:04fffc000000000001
:020000040002f8
:0c000000000000000000000000000000f4
:10000c0000000000000000000000000000000000e4
:10001c0000000000000000000000000000000000d4
:10002c0000000000000000000000000000000000c4
:0207fc000000fb
:0307fe00820080f6
:020801000103f1
:1008030000000000000000000000000000000000e5
:1008130000000000000000000000000000000000d5
:1008230000000000000000000000000000000000c5
:1008330000000000000000000000000000000000b5
:021003000000eb
:0110050022c8
:02100600ac102c
:021008000106df
:00000001FF
